{
  "abi": [
    {
      "type": "constructor",
      "inputs": [],
      "stateMutability": "nonpayable"
    },
    {
      "type": "function",
      "name": "TRANSFER_WITH_AUTHORIZATION_TYPEHASH",
      "inputs": [],
      "outputs": [
        {
          "name": "",
          "type": "bytes32",
          "internalType": "bytes32"
        }
      ],
      "stateMutability": "view"
    },
    {
      "type": "function",
      "name": "allowance",
      "inputs": [
        {
          "name": "owner",
          "type": "address",
          "internalType": "address"
        },
        {
          "name": "spender",
          "type": "address",
          "internalType": "address"
        }
      ],
      "outputs": [
        {
          "name": "",
          "type": "uint256",
          "internalType": "uint256"
        }
      ],
      "stateMutability": "view"
    },
    {
      "type": "function",
      "name": "approve",
      "inputs": [
        {
          "name": "spender",
          "type": "address",
          "internalType": "address"
        },
        {
          "name": "value",
          "type": "uint256",
          "internalType": "uint256"
        }
      ],
      "outputs": [
        {
          "name": "",
          "type": "bool",
          "internalType": "bool"
        }
      ],
      "stateMutability": "nonpayable"
    },
    {
      "type": "function",
      "name": "authorizationState",
      "inputs": [
        {
          "name": "",
          "type": "bytes32",
          "internalType": "bytes32"
        }
      ],
      "outputs": [
        {
          "name": "",
          "type": "bool",
          "internalType": "bool"
        }
      ],
      "stateMutability": "view"
    },
    {
      "type": "function",
      "name": "balanceOf",
      "inputs": [
        {
          "name": "account",
          "type": "address",
          "internalType": "address"
        }
      ],
      "outputs": [
        {
          "name": "",
          "type": "uint256",
          "internalType": "uint256"
        }
      ],
      "stateMutability": "view"
    },
    {
      "type": "function",
      "name": "decimals",
      "inputs": [],
      "outputs": [
        {
          "name": "",
          "type": "uint8",
          "internalType": "uint8"
        }
      ],
      "stateMutability": "view"
    },
    {
      "type": "function",
      "name": "eip712Domain",
      "inputs": [],
      "outputs": [
        {
          "name": "fields",
          "type": "bytes1",
          "internalType": "bytes1"
        },
        {
          "name": "name",
          "type": "string",
          "internalType": "string"
        },
        {
          "name": "version",
          "type": "string",
          "internalType": "string"
        },
        {
          "name": "chainId",
          "type": "uint256",
          "internalType": "uint256"
        },
        {
          "name": "verifyingContract",
          "type": "address",
          "internalType": "address"
        },
        {
          "name": "salt",
          "type": "bytes32",
          "internalType": "bytes32"
        },
        {
          "name": "extensions",
          "type": "uint256[]",
          "internalType": "uint256[]"
        }
      ],
      "stateMutability": "view"
    },
    {
      "type": "function",
      "name": "mint",
      "inputs": [
        {
          "name": "to",
          "type": "address",
          "internalType": "address"
        },
        {
          "name": "amount",
          "type": "uint256",
          "internalType": "uint256"
        }
      ],
      "outputs": [],
      "stateMutability": "nonpayable"
    },
    {
      "type": "function",
      "name": "name",
      "inputs": [],
      "outputs": [
        {
          "name": "",
          "type": "string",
          "internalType": "string"
        }
      ],
      "stateMutability": "view"
    },
    {
      "type": "function",
      "name": "symbol",
      "inputs": [],
      "outputs": [
        {
          "name": "",
          "type": "string",
          "internalType": "string"
        }
      ],
      "stateMutability": "view"
    },
    {
      "type": "function",
      "name": "totalSupply",
      "inputs": [],
      "outputs": [
        {
          "name": "",
          "type": "uint256",
          "internalType": "uint256"
        }
      ],
      "stateMutability": "view"
    },
    {
      "type": "function",
      "name": "transfer",
      "inputs": [
        {
          "name": "to",
          "type": "address",
          "internalType": "address"
        },
        {
          "name": "value",
          "type": "uint256",
          "internalType": "uint256"
        }
      ],
      "outputs": [
        {
          "name": "",
          "type": "bool",
          "internalType": "bool"
        }
      ],
      "stateMutability": "nonpayable"
    },
    {
      "type": "function",
      "name": "transferFrom",
      "inputs": [
        {
          "name": "from",
          "type": "address",
          "internalType": "address"
        },
        {
          "name": "to",
          "type": "address",
          "internalType": "address"
        },
        {
          "name": "value",
          "type": "uint256",
          "internalType": "uint256"
        }
      ],
      "outputs": [
        {
          "name": "",
          "type": "bool",
          "internalType": "bool"
        }
      ],
      "stateMutability": "nonpayable"
    },
    {
      "type": "function",
      "name": "transferWithAuthorization",
      "inputs": [
        {
          "name": "from",
          "type": "address",
          "internalType": "address"
        },
        {
          "name": "to",
          "type": "address",
          "internalType": "address"
        },
        {
          "name": "value",
          "type": "uint256",
          "internalType": "uint256"
        },
        {
          "name": "validAfter",
          "type": "uint256",
          "internalType": "uint256"
        },
        {
          "name": "validBefore",
          "type": "uint256",
          "internalType": "uint256"
        },
        {
          "name": "nonce",
          "type": "bytes32",
          "internalType": "bytes32"
        },
        {
          "name": "signature",
          "type": "bytes",
          "internalType": "bytes"
        }
      ],
      "outputs": [],
      "stateMutability": "nonpayable"
    },
    {
      "type": "function",
      "name": "transferWithAuthorization",
      "inputs": [
        {
          "name": "from",
          "type": "address",
          "internalType": "address"
        },
        {
          "name": "to",
          "type": "address",
          "internalType": "address"
        },
        {
          "name": "value",
          "type": "uint256",
          "internalType": "uint256"
        },
        {
          "name": "validAfter",
          "type": "uint256",
          "internalType": "uint256"
        },
        {
          "name": "validBefore",
          "type": "uint256",
          "internalType": "uint256"
        },
        {
          "name": "nonce",
          "type": "bytes32",
          "internalType": "bytes32"
        },
        {
          "name": "v",
          "type": "uint8",
          "internalType": "uint8"
        },
        {
          "name": "r",
          "type": "bytes32",
          "internalType": "bytes32"
        },
        {
          "name": "s",
          "type": "bytes32",
          "internalType": "bytes32"
        }
      ],
      "outputs": [],
      "stateMutability": "nonpayable"
    },
    {
      "type": "event",
      "name": "Approval",
      "inputs": [
        {
          "name": "owner",
          "type": "address",
          "indexed": true,
          "internalType": "address"
        },
        {
          "name": "spender",
          "type": "address",
          "indexed": true,
          "internalType": "address"
        },
        {
          "name": "value",
          "type": "uint256",
          "indexed": false,
          "internalType": "uint256"
        }
      ],
      "anonymous": false
    },
    {
      "type": "event",
      "name": "EIP712DomainChanged",
      "inputs": [],
      "anonymous": false
    },
    {
      "type": "event",
      "name": "Transfer",
      "inputs": [
        {
          "name": "from",
          "type": "address",
          "indexed": true,
          "internalType": "address"
        },
        {
          "name": "to",
          "type": "address",
          "indexed": true,
          "internalType": "address"
        },
        {
          "name": "value",
          "type": "uint256",
          "indexed": false,
          "internalType": "uint256"
        }
      ],
      "anonymous": false
    },
    {
      "type": "error",
      "name": "ECDSAInvalidSignature",
      "inputs": []
    },
    {
      "type": "error",
      "name": "ECDSAInvalidSignatureLength",
      "inputs": [
        {
          "name": "length",
          "type": "uint256",
          "internalType": "uint256"
        }
      ]
    },
    {
      "type": "error",
      "name": "ECDSAInvalidSignatureS",
      "inputs": [
        {
          "name": "s",
          "type": "bytes32",
          "internalType": "bytes32"
        }
      ]
    },
    {
      "type": "error",
      "name": "ERC20InsufficientAllowance",
      "inputs": [
        {
          "name": "spender",
          "type": "address",
          "internalType": "address"
        },
        {
          "name": "allowance",
          "type": "uint256",
          "internalType": "uint256"
        },
        {
          "name": "needed",
          "type": "uint256",
          "internalType": "uint256"
        }
      ]
    },
    {
      "type": "error",
      "name": "ERC20InsufficientBalance",
      "inputs": [
        {
          "name": "sender",
          "type": "address",
          "internalType": "address"
        },
        {
          "name": "balance",
          "type": "uint256",
          "internalType": "uint256"
        },
        {
          "name": "needed",
          "type": "uint256",
          "internalType": "uint256"
        }
      ]
    },
    {
      "type": "error",
      "name": "ERC20InvalidApprover",
      "inputs": [
        {
          "name": "approver",
          "type": "address",
          "internalType": "address"
        }
      ]
    },
    {
      "type": "error",
      "name": "ERC20InvalidReceiver",
      "inputs": [
        {
          "name": "receiver",
          "type": "address",
          "internalType": "address"
        }
      ]
    },
    {
      "type": "error",
      "name": "ERC20InvalidSender",
      "inputs": [
        {
          "name": "sender",
          "type": "address",
          "internalType": "address"
        }
      ]
    },
    {
      "type": "error",
      "name": "ERC20InvalidSpender",
      "inputs": [
        {
          "name": "spender",
          "type": "address",
          "internalType": "address"
        }
      ]
    },
    {
      "type": "error",
      "name": "InvalidShortString",
      "inputs": []
    },
    {
      "type": "error",
      "name": "StringTooLong",
      "inputs": [
        {
          "name": "str",
          "type": "string",
          "internalType": "string"
        }
      ]
    }
  ],
  "bytecode": {
    "object": "0x610160604052346104295760405161001860408261042d565b600881526020810190674d6f636b5553444360c01b82526040519161003e60408461042d565b600183526020830191603160f81b835260405161005c60408261042d565b60088152674d6f636b5553444360c01b60208201526040519061008060408361042d565b60048252635553444360e01b60208301528051906001600160401b03821161032c5760035490600182811c9216801561041f575b602083101461030e5781601f8493116103b1575b50602090601f831160011461034b575f92610340575b50508160011b915f199060031b1c1916176003555b8051906001600160401b03821161032c5760045490600182811c92168015610322575b602083101461030e5781601f8493116102a0575b50602090601f831160011461023a575f9261022f575b50508160011b915f199060031b1c1916176004555b61015e81610450565b6101205261016b846105d7565b61014052519020918260e05251902080610100524660a0526040519060208201927f8b73c3c69bb8fe3d512ecc4cf759cc79239f7b179b0ffacaa9a75d522b39400f8452604083015260608201524660808201523060a082015260a081526101d460c08261042d565b5190206080523060c0526040516110319081610710823960805181610db7015260a05181610e74015260c05181610d81015260e05181610e0601526101005181610e2c015261012051816104dd015261014051816105060152f35b015190505f80610140565b60045f9081528281209350601f198516905b8181106102885750908460019594939210610270575b505050811b01600455610155565b01515f1960f88460031b161c191690555f8080610262565b9293602060018192878601518155019501930161024c565b60045f529091507f8a35acfbc15ff81a39ae7d344fd709f28e8600b4aa8c65c6b64bfe7fe36bd19b601f840160051c81019160208510610304575b90601f859493920160051c01905b8181106102f6575061012a565b5f81558493506001016102e9565b90915081906102db565b634e487b7160e01b5f52602260045260245ffd5b91607f1691610116565b634e487b7160e01b5f52604160045260245ffd5b015190505f806100de565b60035f9081528281209350601f198516905b8181106103995750908460019594939210610381575b505050811b016003556100f3565b01515f1960f88460031b161c191690555f8080610373565b9293602060018192878601518155019501930161035d565b60035f529091507fc2575a0e9e593c00f959f8c92f12db2869c3395a3b0502d05e2516446f71f85b601f840160051c81019160208510610415575b90601f859493920160051c01905b81811061040757506100c8565b5f81558493506001016103fa565b90915081906103ec565b91607f16916100b4565b5f80fd5b601f909101601f19168101906001600160401b0382119082101761032c57604052565b908151602081105f146104ca575090601f81511161048a57602081519101516020821061047b571790565b5f198260200360031b1b161790565b604460209160405192839163305a27a960e01b83528160048401528051918291826024860152018484015e5f828201840152601f01601f19168101030190fd5b6001600160401b03811161032c57600554600181811c911680156105cd575b602082101461030e57601f811161059a575b50602092601f821160011461053957928192935f9261052e575b50508160011b915f199060031b1c19161760055560ff90565b015190505f80610515565b601f1982169360055f52805f20915f5b868110610582575083600195961061056a575b505050811b0160055560ff90565b01515f1960f88460031b161c191690555f808061055c565b91926020600181928685015181550194019201610549565b60055f52601f60205f20910160051c810190601f830160051c015b8181106105c257506104fb565b5f81556001016105b5565b90607f16906104e9565b908151602081105f14610602575090601f81511161048a57602081519101516020821061047b571790565b6001600160401b03811161032c57600654600181811c91168015610705575b602082101461030e57601f81116106d2575b50602092601f821160011461067157928192935f92610666575b50508160011b915f199060031b1c19161760065560ff90565b015190505f8061064d565b601f1982169360065f52805f20915f5b8681106106ba57508360019596106106a2575b505050811b0160065560ff90565b01515f1960f88460031b161c191690555f8080610694565b91926020600181928685015181550194019201610681565b60065f52601f60205f20910160051c810190601f830160051c015b8181106106fa5750610633565b5f81556001016106ed565b90607f169061062156fe60806040526004361015610011575f80fd5b5f3560e01c806306fdde0314610104578063095ea7b3146100ff57806318160ddd146100fa57806323b872dd146100f5578063313ce567146100f057806340c10f19146100eb57806370a08231146100e657806384b0196e146100e157806395d89b41146100dc578063a0cc6a68146100d7578063a9059cbb146100d2578063cf092995146100cd578063dd62ed3e146100c8578063e3ee160e146100c35763eda96149146100be575f80fd5b610890565b610815565b6107be565b610729565b6106a1565b610667565b6105c2565b6104c5565b61048e565b6103dc565b6103c1565b610321565b610304565b61024b565b610141565b805180835260209291819084018484015e5f828201840152601f01601f1916010190565b90602061013e928181520190610109565b90565b3461021b575f36600319011261021b576040515f600354610161816108bf565b80845290600181169081156101f75750600114610199575b61019583610189818503826106e6565b6040519182918261012d565b0390f35b60035f9081527fc2575a0e9e593c00f959f8c92f12db2869c3395a3b0502d05e2516446f71f85b939250905b8082106101dd57509091508101602001610189610179565b9192600181602092548385880101520191019092916101c5565b60ff191660208086019190915291151560051b840190910191506101899050610179565b5f80fd5b600435906001600160a01b038216820361021b57565b602435906001600160a01b038216820361021b57565b3461021b57604036600319011261021b5761026461021f565b60243533156102f1576001600160a01b0382169182156102de576102a48291335f52600160205260405f209060018060a01b03165f5260205260405f2090565b5560405190815233907f8c5be1e5ebec7d5bd14f71427d1e84f3dd0314c0f7b2291e5b200ac8c7c3b92590602090a3602060405160018152f35b634a1406b160e11b5f525f60045260245ffd5b63e602df0560e01b5f525f60045260245ffd5b3461021b575f36600319011261021b576020600254604051908152f35b3461021b57606036600319011261021b5761033a61021f565b610342610235565b6001600160a01b0382165f9081526001602090815260408083203384529091529020549160443591905f19841061038a575b61037e9350610978565b60405160018152602090f35b8284106103a6576103a18361037e95033383610c65565b610374565b8284637dc7a0d960e11b5f523360045260245260445260645ffd5b3461021b575f36600319011261021b57602060405160128152f35b3461021b57604036600319011261021b576103f561021f565b6001600160a01b0381169060243590821561047b5760025490828201809211610467576002919091556001600160a01b03165f90815260208181526040822091927fddf252ad1be2c89b69c2b068fc378daa952ba7f163c4a11628f55a4df523b3ef92818154019055604051908152a3005b634e487b7160e01b5f52601160045260245ffd5b63ec442f0560e01b5f525f60045260245ffd5b3461021b57602036600319011261021b576001600160a01b036104af61021f565b165f525f602052602060405f2054604051908152f35b3461021b575f36600319011261021b576105696105017f0000000000000000000000000000000000000000000000000000000000000000610cab565b61052a7f0000000000000000000000000000000000000000000000000000000000000000610d0b565b602060405161053982826106e6565b5f81528161057781830194601f198301368737604051978897600f60f81b895260e0858a015260e0890190610109565b908782036040890152610109565b914660608701523060808701525f60a087015285830360c087015251918281520192915f5b8281106105ab57505050500390f35b83518552869550938101939281019260010161059c565b3461021b575f36600319011261021b576040515f6004546105e2816108bf565b80845290600181169081156101f757506001146106095761019583610189818503826106e6565b60045f9081527f8a35acfbc15ff81a39ae7d344fd709f28e8600b4aa8c65c6b64bfe7fe36bd19b939250905b80821061064d57509091508101602001610189610179565b919260018160209254838588010152019101909291610635565b3461021b575f36600319011261021b5760206040517f7c7c6cdb67a18743f49ec6fa9b35f50d52ed05cbed4cc592e13b44501c1a22678152f35b3461021b57604036600319011261021b576106c76106bd61021f565b6024359033610978565b602060405160018152f35b634e487b7160e01b5f52604160045260245ffd5b90601f8019910116810190811067ffffffffffffffff82111761070857604052565b6106d2565b67ffffffffffffffff811161070857601f01601f191660200190565b3461021b5760e036600319011261021b5761074261021f565b61074a610235565b906044356064356084359060a4359260c4359567ffffffffffffffff871161021b573660238801121561021b578660040135956107868761070d565b9661079460405198896106e6565b808852366024828b01011161021b576020815f9260246107bc9c01838c013789010152610b7f565b005b3461021b57604036600319011261021b57602061080c6107dc61021f565b6107e4610235565b6001600160a01b039182165f9081526001855260408082209290931681526020919091522090565b54604051908152f35b3461021b5761012036600319011261021b5761082f61021f565b610837610235565b6044356064356084359060a4359260c4359460ff8616860361021b576107bc9660e43596610104356040519860208a0152604089015260ff60f81b9060f81b1660608801526041875261088b6061886106e6565b610b7f565b3461021b57602036600319011261021b576004355f526007602052602060ff60405f2054166040519015158152f35b90600182811c921680156108ed575b60208310146108d957565b634e487b7160e01b5f52602260045260245ffd5b91607f16916108ce565b5f9291815491610906836108bf565b808352926001811690811561095b575060011461092257505050565b5f9081526020812093945091925b838310610941575060209250010190565b600181602092949394548385870101520191019190610930565b915050602093945060ff929192191683830152151560051b010190565b916001600160a01b038316918215610a50576001600160a01b03811693841561047b576001600160a01b0381165f90815260208190526040902054838110610a3557610a30928492610a007fddf252ad1be2c89b69c2b068fc378daa952ba7f163c4a11628f55a4df523b3ef96610a1a94039160018060a01b03165f525f60205260405f2090565b556001600160a01b03165f90815260208190526040902090565b8054820190556040519081529081906020820190565b0390a3565b83908563391434e360e21b5f5260045260245260445260645ffd5b634b637e8f60e11b5f525f60045260245ffd5b15610a6a57565b60405162461bcd60e51b815260206004820152601b60248201527f417574686f72697a6174696f6e206e6f74207965742076616c696400000000006044820152606490fd5b15610ab657565b60405162461bcd60e51b8152602060048201526015602482015274105d5d1a1bdc9a5e985d1a5bdb88195e1c1a5c9959605a1b6044820152606490fd5b15610afa57565b60405162461bcd60e51b815260206004820152601a60248201527f417574686f72697a6174696f6e20616c726561647920757365640000000000006044820152606490fd5b15610b4657565b60405162461bcd60e51b8152602060048201526011602482015270496e76616c6964207369676e617475726560781b6044820152606490fd5b9294610c43610c30610c6398610c2b60e0610c5e979a610c51979a610ba682421015610a63565b610bb1814210610aaf565b610bdc610bd7610bd3610bcc8b5f52600760205260405f2090565b5460ff1690565b1590565b610af3565b604051917f7c7c6cdb67a18743f49ec6fa9b35f50d52ed05cbed4cc592e13b44501c1a226783528b60208401528c60408401528d6060840152608083015260a08201528660c082015220610d42565b610d68565b6001600160a01b03868116911614610b3f565b5f52600760205260405f2090565b805460ff19166001179055565b610978565b565b6001600160a01b03169081156102f1576001600160a01b038116156102de57610ca8915f52600160205260405f209060018060a01b03165f5260205260405f2090565b55565b60ff8114610cf15760ff811690601f8211610ce25760405191610ccf6040846106e6565b6020808452838101919036833783525290565b632cd44ac360e21b5f5260045ffd5b5060405161013e81610d048160056108f7565b03826106e6565b60ff8114610d2f5760ff811690601f8211610ce25760405191610ccf6040846106e6565b5060405161013e81610d048160066108f7565b604290610d4d610d7e565b906040519161190160f01b8352600283015260228201522090565b61013e91610d7591610e9a565b90929192610ef2565b307f00000000000000000000000000000000000000000000000000000000000000006001600160a01b03161480610e71575b15610dd9577f000000000000000000000000000000000000000000000000000000000000000090565b60405160208101907f8b73c3c69bb8fe3d512ecc4cf759cc79239f7b179b0ffacaa9a75d522b39400f82527f000000000000000000000000000000000000000000000000000000000000000060408201527f000000000000000000000000000000000000000000000000000000000000000060608201524660808201523060a082015260a08152610e6b60c0826106e6565b51902090565b507f00000000000000000000000000000000000000000000000000000000000000004614610db0565b8151919060418303610eca57610ec39250602082015190606060408401519301515f1a90610f6e565b9192909190565b50505f9160029190565b60041115610ede57565b634e487b7160e01b5f52602160045260245ffd5b610efb81610ed4565b80610f04575050565b610f0d81610ed4565b60018103610f245763f645eedf60e01b5f5260045ffd5b610f2d81610ed4565b60028103610f48575063fce698f760e01b5f5260045260245ffd5b80610f54600392610ed4565b14610f5c5750565b6335e2f38360e21b5f5260045260245ffd5b91907f7fffffffffffffffffffffffffffffff5d576e7357a4501ddfe92f46681b20a08411610ff0579160209360809260ff5f9560405194855216868401526040830152606082015282805260015afa15610fe5575f516001600160a01b03811615610fdb57905f905f90565b505f906001905f90565b6040513d5f823e3d90fd5b5050505f916003919056fea2646970667358221220e343526cd5e142cc7ae0c65ea138b9447cd5ee24274720dcd81b9bac8ed6f1db64736f6c634300081d0033",
    "linkReferences": {}
  },
  "methodIdentifiers": {
    "TRANSFER_WITH_AUTHORIZATION_TYPEHASH()": "a0cc6a68",
    "allowance(address,address)": "dd62ed3e",
    "approve(address,uint256)": "095ea7b3",
    "authorizationState(bytes32)": "eda96149",
    "balanceOf(address)": "70a08231",
    "decimals()": "313ce567",
    "eip712Domain()": "84b0196e",
    "mint(address,uint256)": "40c10f19",
    "name()": "06fdde03",
    "symbol()": "95d89b41",
    "totalSupply()": "18160ddd",
    "transfer(address,uint256)": "a9059cbb",
    "transferFrom(address,address,uint256)": "23b872dd",
    "transferWithAuthorization(address,address,uint256,uint256,uint256,bytes32,bytes)": "cf092995",
    "transferWithAuthorization(address,address,uint256,uint256,uint256,bytes32,uint8,bytes32,bytes32)": "e3ee160e"
  },
  "id": 17
}