{"abi":[{"type":"constructor","inputs":[],"stateMutability":"nonpayable"},{"type":"receive","stateMutability":"payable"},{"type":"function","name":"eip712Domain","inputs":[],"outputs":[{"name":"fields","type":"bytes1","internalType":"bytes1"},{"name":"name","type":"string","internalType":"string"},{"name":"version","type":"string","internalType":"string"},{"name":"chainId","type":"uint256","internalType":"uint256"},{"name":"verifyingContract","type":"address","internalType":"address"},{"name":"salt","type":"bytes32","internalType":"bytes32"},{"name":"extensions","type":"uint256[]","internalType":"uint256[]"}],"stateMutability":"view"},{"type":"function","name":"invalidateNonce","inputs":[{"name":"nonce","type":"uint256","internalType":"uint256"}],"outputs":[],"stateMutability":"nonpayable"},{"type":"function","name":"isValidSignature","inputs":[{"name":"hash","type":"bytes32","internalType":"bytes32"},{"name":"signature","type":"bytes","internalType":"bytes"}],"outputs":[{"name":"result","type":"bytes4","internalType":"bytes4"}],"stateMutability":"view"},{"type":"function","name":"transfer","inputs":[{"name":"intent","type":"tuple","internalType":"struct Delegate.PaymentIntent","components":[{"name":"token","type":"address","internalType":"address"},{"name":"amount","type":"uint256","internalType":"uint256"},{"name":"to","type":"address","internalType":"address"},{"name":"nonce","type":"uint256","internalType":"uint256"},{"name":"deadline","type":"uint256","internalType":"uint256"}]},{"name":"signature","type":"bytes","internalType":"bytes"}],"outputs":[],"stateMutability":"nonpayable"},{"type":"function","name":"transferEth","inputs":[{"name":"intent","type":"tuple","internalType":"struct Delegate.EthPaymentIntent","components":[{"name":"amount","type":"uint256","internalType":"uint256"},{"name":"to","type":"address","internalType":"address"},{"name":"nonce","type":"uint256","internalType":"uint256"},{"name":"deadline","type":"uint256","internalType":"uint256"}]},{"name":"signature","type":"bytes","internalType":"bytes"}],"outputs":[],"stateMutability":"nonpayable"},{"type":"event","name":"EIP712DomainChanged","inputs":[],"anonymous":false},{"type":"error","name":"InvalidShortString","inputs":[]},{"type":"error","name":"SafeERC20FailedOperation","inputs":[{"name":"token","type":"address","internalType":"address"}]},{"type":"error","name":"StringTooLong","inputs":[{"name":"str","type":"string","internalType":"string"}]}],"bytecode":{"object":"0x6101606040523461012a5760405161001860408261012e565b6008815260208101906744656c656761746560c01b82526040519161003e60408461012e565b600383526020830191620312e360ec1b835261005981610165565b61012052610066846102fb565b61014052519020918260e05251902080610100524660a0526040519060208201927f8b73c3c69bb8fe3d512ecc4cf759cc79239f7b179b0ffacaa9a75d522b39400f8452604083015260608201524660808201523060a082015260a081526100cf60c08261012e565b5190206080523060c0526040516110bf9081610434823960805181610b02015260a05181610bb9015260c05181610acc015260e05181610b5101526101005181610b770152610120518161064c015261014051816106760152f35b5f80fd5b601f909101601f19168101906001600160401b0382119082101761015157604052565b634e487b7160e01b5f52604160045260245ffd5b908151602081105f146101df575090601f81511161019f576020815191015160208210610190571790565b5f198260200360031b1b161790565b604460209160405192839163305a27a960e01b83528160048401528051918291826024860152018484015e5f828201840152601f01601f19168101030190fd5b6001600160401b038111610151575f54600181811c911680156102f1575b60208210146102dd57601f81116102ab575b50602092601f821160011461024c57928192935f92610241575b50508160011b915f199060031b1c1916175f5560ff90565b015190505f80610229565b601f198216935f8052805f20915f5b868110610293575083600195961061027b575b505050811b015f5560ff90565b01515f1960f88460031b161c191690555f808061026e565b9192602060018192868501518155019401920161025b565b5f8052601f60205f20910160051c810190601f830160051c015b8181106102d2575061020f565b5f81556001016102c5565b634e487b7160e01b5f52602260045260245ffd5b90607f16906101fd565b908151602081105f14610326575090601f81511161019f576020815191015160208210610190571790565b6001600160401b03811161015157600154600181811c91168015610429575b60208210146102dd57601f81116103f6575b50602092601f821160011461039557928192935f9261038a575b50508160011b915f199060031b1c19161760015560ff90565b015190505f80610371565b601f1982169360015f52805f20915f5b8681106103de57508360019596106103c6575b505050811b0160015560ff90565b01515f1960f88460031b161c191690555f80806103b8565b919260206001819286850151815501940192016103a5565b60015f52601f60205f20910160051c810190601f830160051c015b81811061041e5750610357565b5f8155600101610411565b90607f169061034556fe6080604052600436101561001a575b3615610018575f80fd5b005b5f3560e01c806305b6eb9f146100695780631626ba7e146100645780633b8218601461005f57806384b0196e1461005a5763b70e36f00361000e57610517565b610471565b61031a565b610175565b3461014357366003190160a08112610143576080136101435760843567ffffffffffffffff8111610143575f8080806100a9610018953690600401610147565b906101106044356100b9816106c4565b600435936100c561056c565b9360a060643593604051907fa24447fab62723450095d3ad42f06d3f815a023f2e0b97c41a5f768c52177ff48252886020830152876040830152606082015284608082015220610768565b5af13d1561013e573d610122816105e9565b9061013060405192836105c2565b81525f60203d92013e610605565b610605565b5f80fd5b9181601f840112156101435782359167ffffffffffffffff8311610143576020838186019501011161014357565b346101435760403660031901126101435760043560243567ffffffffffffffff8111610143576101a9903690600401610147565b9190826101b681836108c9565b90969492916101c3610647565b5092969450908d6101d787959e958a6109a1565b149c8d610310575b8d610297575b50505050505050505050508215610285575b50501561022c57506102289050630b135d3f60e11b5b6040516001600160e01b031990911681529081906020820190565b0390f35b7f773977397739773977397739773977397739773977397739773977397739773914908161027c575b501561026b57610228637739000160e01b61020d565b6102286001600160e01b031961020d565b9050155f610255565b6102909250836107fe565b825f6101f7565b6102ff9b9d50916102fa98979593918360206102f49997955191012096602081519101206040519760208901526040880152606087015260018060a01b0316608086015260a085015260a084526102ef60c0856105c2565b6109be565b906109a1565b610843565b915f808080808080808080806101e5565b8515159d506101df565b3461014357366003190160c081126101435760a0136101435760a43567ffffffffffffffff811161014357610353903690600401610147565b90606435610360816106c4565b6103c961036b610582565b9160243594610378610598565b9460c060843593604051907f935bf9a4261e15f8449634fd7c0e31227afce52a2f0829d3b5a103c6c9ba7c67825287602083015289604083015288606083015260808201528460a082015220610768565b60405163a9059cbb60e01b5f9081526001600160a01b0393841660045260249490945291169160209060448180865af160015f511481161561042e575b6040919091521561041357005b635274afe760e01b5f526001600160a01b031660045260245ffd5b6001811516610444573d15833b15151616610406565b503d5f823e3d90fd5b805180835260209291819084018484015e5f828201840152601f01601f1916010190565b34610143575f366003190112610143576104c161048c610647565b94969092936104b360405198899860ff60f81b16895260e060208a015260e089019061044d565b90878203604089015261044d565b92606086015260018060a01b0316608085015260a084015282810360c0840152602080835192838152019201905f5b8181106104fe575050500390f35b82518452859450602093840193909201916001016104f0565b346101435760203660031901126101435730330361053a576100186004356106c4565b60405162461bcd60e51b815260206004820152600a60248201526927b7363c9037bbb732b960b11b6044820152606490fd5b6024356001600160a01b03811681036101435790565b6004356001600160a01b03811681036101435790565b6044356001600160a01b03811681036101435790565b634e487b7160e01b5f52604160045260245ffd5b90601f8019910116810190811067ffffffffffffffff8211176105e457604052565b6105ae565b67ffffffffffffffff81116105e457601f01601f191660200190565b1561060c57565b60405162461bcd60e51b8152602060048201526013602482015272115512081d1c985b9cd9995c8819985a5b1959606a1b6044820152606490fd5b6106707f0000000000000000000000000000000000000000000000000000000000000000610bdf565b9061069a7f0000000000000000000000000000000000000000000000000000000000000000610cc2565b906040516106a96020826105c2565b5f808252366020830137600f60f81b939291469130915f9190565b805f527fd0f2263d152f9b30dd64b4d5776066eeab75bd391d74f37c4437a35b6b29ce0060205260ff60405f20541661072e575f527fd0f2263d152f9b30dd64b4d5776066eeab75bd391d74f37c4437a35b6b29ce0060205260405f20600160ff19825416179055565b60405162461bcd60e51b8152602060048201526012602482015271139bdb98d948185b1c9958591e481d5cd95960721b6044820152606490fd5b9242116107cf576102fa6107839361077e610ac9565b6109a1565b1561078a57565b60405162461bcd60e51b815260206004820152601860248201527f496e76616c696420496e74656e74205369676e617475726500000000000000006044820152606490fd5b60405162461bcd60e51b8152602060048201526007602482015266115e1c1a5c995960ca1b6044820152606490fd5b906102fa610840939261080f610ac9565b907f983e65e5148e570cd828ead231ee759a8d7958721a768f93bc4483ba005c32de5f5260205260405f20906109a1565b90565b9061084e9291610d7a565b509060018060a01b031630149081610864575090565b90506004811015610873571590565b634e487b7160e01b5f52602160045260245ffd5b909291928311610143579190565b90939293848311610143578411610143578101920390565b3590602081106108bb575090565b5f199060200360031b1b1690565b9160428210610991576001198201926108e483858184610895565b6001600160f01b031991359182169160028210610971575b505060f01c80604201841061095f5783039161095b600119840195602119850196879560411901966109556109478361094d61094761093c8d878d610887565b9e909e9d878d610895565b906108ad565b99848a610895565b95610895565b9091565b505f9350839250829182915081908190565b6001600160f01b031960029290920360031b82901b161690505f806108fc565b5f92508291508190819081908190565b6042916040519161190160f01b8352600283015260228201522090565b906109cb91939293610e01565b909291806109dd575050505050505f90565b605c610a9d91602e84610ac39760405196848895602087019a6d0a8f2e0cac888c2e8c2a6d2cedc560931b8c52868801378501917f20636f6e74656e74732c737472696e67206e616d652c737472696e6720766572858401527f73696f6e2c75696e7432353620636861696e49642c6164647265737320766572604e8401527f696679696e67436f6e74726163742c627974657333322073616c742900000000606e840152608a83013701015f838201520301601f1981018352826105c2565b51902092610ab5604051938492602084019687610f3d565b03601f1981018352826105c2565b51902090565b307f00000000000000000000000000000000000000000000000000000000000000006001600160a01b03161480610bb6575b15610b24577f000000000000000000000000000000000000000000000000000000000000000090565b60405160208101907f8b73c3c69bb8fe3d512ecc4cf759cc79239f7b179b0ffacaa9a75d522b39400f82527f000000000000000000000000000000000000000000000000000000000000000060408201527f000000000000000000000000000000000000000000000000000000000000000060608201524660808201523060a082015260a08152610ac360c0826105c2565b507f00000000000000000000000000000000000000000000000000000000000000004614610afb565b60ff8114610bf05761084090610f5d565b506040515f5f548060011c91600182168015610cb8575b602084108114610ca45783855284926020840191908115610c8b5750600114610c38575b50610840925003826105c2565b5f80805291507f290decd9548b62a8d60345a988386fc84ba6bc95484008f6362f93160ef3e5635b848310610c7457506108409350015f610c2b565b805482840152859350602090920191600101610c60565b60ff191682525061084093151560051b0190505f610c2b565b634e487b7160e01b5f52602260045260245ffd5b92607f1692610c07565b60ff8114610cd35761084090610f5d565b506040515f6001548060011c91600182168015610d70575b602084108114610ca45783855284926020840191908115610c8b5750600114610d1b5750610840925003826105c2565b60015f90815291507fb10e2d527612073b26eecdfd717e6a320cf44b4afac2b0732d9fcbe2b7fa0cf65b848310610d5957506108409350015f610c2b565b805482840152859350602090920191600101610d45565b92607f1692610ceb565b9060418303610da457610d9d9250602081013591604082359201355f1a90610f9b565b9192909190565b50505f9160029190565b634e487b7160e01b5f52601160045260245ffd5b5f19810191908211610dd057565b610dae565b90821015610de1570190565b634e487b7160e01b5f52603260045260245ffd5b8015610dd0575f190190565b9080610e14575b50505f905f905f905f90565b602960f81b6001600160f81b0319610e46610e38610e3185610dc2565b8587610dd5565b356001600160f81b03191690565b1603610eb8575f5b818110610e61575b5050505b5f80610e08565b610e6f610e38828486610dd5565b6001600160f81b03198116600560fb1b03610ea357508015610e9e57610e96908284610887565b939093929190565b610e56565b610eac90611028565b610e9e57600101610e4e565b9081805b610ec9575b505050610e5a565b610ee3610e38610edc8396949596610dc2565b8686610dd5565b6001600160f81b03198116602960f81b03610f18575080610f0985610f11938187610895565b959094610887565b9293929091565b610f259094939294611028565b610f3857610f3290610df5565b80610ebc565b610ec1565b90926020926040948352838301528051928391018483015e01015f815290565b60ff811690601f8211610f8c5760405191610f796040846105c2565b6020808452838101919036833783525290565b632cd44ac360e21b5f5260045ffd5b91907f7fffffffffffffffffffffffffffffff5d576e7357a4501ddfe92f46681b20a0841161101d579160209360809260ff5f9560405194855216868401526040830152606082015282805260015afa15611012575f516001600160a01b0381161561100857905f905f90565b505f906001905f90565b6040513d5f823e3d90fd5b5050505f9160039190565b6001600160f81b031916801590811561107b575b811561106d575b811561105f575b8115611054575090565b602960f81b14919050565b600560fb1b8114915061104a565b600b60fa1b81149150611043565b600160fd1b8114915061103c56fea264697066735822122094447c4c19496f4071edd8a8afc3e5667845b48abf73d8d71210b073bdbdbeb464736f6c634300081d0033","linkReferences":{}},"methodIdentifiers":{"eip712Domain()":"84b0196e","invalidateNonce(uint256)":"b70e36f0","isValidSignature(bytes32,bytes)":"1626ba7e","transfer((address,uint256,address,uint256,uint256),bytes)":"3b821860","transferEth((uint256,address,uint256,uint256),bytes)":"05b6eb9f"},"id":49}