{
  "abi": [
    {
      "type": "constructor",
      "inputs": [],
      "stateMutability": "nonpayable"
    },
    {
      "type": "receive",
      "stateMutability": "payable"
    },
    {
      "type": "function",
      "name": "eip712Domain",
      "inputs": [],
      "outputs": [
        {
          "name": "fields",
          "type": "bytes1",
          "internalType": "bytes1"
        },
        {
          "name": "name",
          "type": "string",
          "internalType": "string"
        },
        {
          "name": "version",
          "type": "string",
          "internalType": "string"
        },
        {
          "name": "chainId",
          "type": "uint256",
          "internalType": "uint256"
        },
        {
          "name": "verifyingContract",
          "type": "address",
          "internalType": "address"
        },
        {
          "name": "salt",
          "type": "bytes32",
          "internalType": "bytes32"
        },
        {
          "name": "extensions",
          "type": "uint256[]",
          "internalType": "uint256[]"
        }
      ],
      "stateMutability": "view"
    },
    {
      "type": "function",
      "name": "invalidateNonce",
      "inputs": [
        {
          "name": "nonce",
          "type": "uint256",
          "internalType": "uint256"
        }
      ],
      "outputs": [],
      "stateMutability": "nonpayable"
    },
    {
      "type": "function",
      "name": "isValidSignature",
      "inputs": [
        {
          "name": "hash",
          "type": "bytes32",
          "internalType": "bytes32"
        },
        {
          "name": "signature",
          "type": "bytes",
          "internalType": "bytes"
        }
      ],
      "outputs": [
        {
          "name": "result",
          "type": "bytes4",
          "internalType": "bytes4"
        }
      ],
      "stateMutability": "view"
    },
    {
      "type": "function",
      "name": "onERC1155BatchReceived",
      "inputs": [
        {
          "name": "",
          "type": "address",
          "internalType": "address"
        },
        {
          "name": "",
          "type": "address",
          "internalType": "address"
        },
        {
          "name": "",
          "type": "uint256[]",
          "internalType": "uint256[]"
        },
        {
          "name": "",
          "type": "uint256[]",
          "internalType": "uint256[]"
        },
        {
          "name": "",
          "type": "bytes",
          "internalType": "bytes"
        }
      ],
      "outputs": [
        {
          "name": "",
          "type": "bytes4",
          "internalType": "bytes4"
        }
      ],
      "stateMutability": "nonpayable"
    },
    {
      "type": "function",
      "name": "onERC1155Received",
      "inputs": [
        {
          "name": "",
          "type": "address",
          "internalType": "address"
        },
        {
          "name": "",
          "type": "address",
          "internalType": "address"
        },
        {
          "name": "",
          "type": "uint256",
          "internalType": "uint256"
        },
        {
          "name": "",
          "type": "uint256",
          "internalType": "uint256"
        },
        {
          "name": "",
          "type": "bytes",
          "internalType": "bytes"
        }
      ],
      "outputs": [
        {
          "name": "",
          "type": "bytes4",
          "internalType": "bytes4"
        }
      ],
      "stateMutability": "nonpayable"
    },
    {
      "type": "function",
      "name": "onERC721Received",
      "inputs": [
        {
          "name": "",
          "type": "address",
          "internalType": "address"
        },
        {
          "name": "",
          "type": "address",
          "internalType": "address"
        },
        {
          "name": "",
          "type": "uint256",
          "internalType": "uint256"
        },
        {
          "name": "",
          "type": "bytes",
          "internalType": "bytes"
        }
      ],
      "outputs": [
        {
          "name": "",
          "type": "bytes4",
          "internalType": "bytes4"
        }
      ],
      "stateMutability": "nonpayable"
    },
    {
      "type": "function",
      "name": "supportsInterface",
      "inputs": [
        {
          "name": "interfaceId",
          "type": "bytes4",
          "internalType": "bytes4"
        }
      ],
      "outputs": [
        {
          "name": "",
          "type": "bool",
          "internalType": "bool"
        }
      ],
      "stateMutability": "view"
    },
    {
      "type": "function",
      "name": "transfer",
      "inputs": [
        {
          "name": "intent",
          "type": "tuple",
          "internalType": "struct Delegate.PaymentIntent",
          "components": [
            {
              "name": "token",
              "type": "address",
              "internalType": "address"
            },
            {
              "name": "amount",
              "type": "uint256",
              "internalType": "uint256"
            },
            {
              "name": "to",
              "type": "address",
              "internalType": "address"
            },
            {
              "name": "nonce",
              "type": "uint256",
              "internalType": "uint256"
            },
            {
              "name": "deadline",
              "type": "uint256",
              "internalType": "uint256"
            }
          ]
        },
        {
          "name": "signature",
          "type": "bytes",
          "internalType": "bytes"
        }
      ],
      "outputs": [],
      "stateMutability": "nonpayable"
    },
    {
      "type": "function",
      "name": "transferEth",
      "inputs": [
        {
          "name": "intent",
          "type": "tuple",
          "internalType": "struct Delegate.EthPaymentIntent",
          "components": [
            {
              "name": "amount",
              "type": "uint256",
              "internalType": "uint256"
            },
            {
              "name": "to",
              "type": "address",
              "internalType": "address"
            },
            {
              "name": "nonce",
              "type": "uint256",
              "internalType": "uint256"
            },
            {
              "name": "deadline",
              "type": "uint256",
              "internalType": "uint256"
            }
          ]
        },
        {
          "name": "signature",
          "type": "bytes",
          "internalType": "bytes"
        }
      ],
      "outputs": [],
      "stateMutability": "nonpayable"
    },
    {
      "type": "event",
      "name": "EIP712DomainChanged",
      "inputs": [],
      "anonymous": false
    },
    {
      "type": "event",
      "name": "EthPaymentExecuted",
      "inputs": [
        {
          "name": "to",
          "type": "address",
          "indexed": true,
          "internalType": "address"
        },
        {
          "name": "amount",
          "type": "uint256",
          "indexed": false,
          "internalType": "uint256"
        },
        {
          "name": "nonce",
          "type": "uint256",
          "indexed": true,
          "internalType": "uint256"
        }
      ],
      "anonymous": false
    },
    {
      "type": "event",
      "name": "NonceInvalidated",
      "inputs": [
        {
          "name": "nonce",
          "type": "uint256",
          "indexed": true,
          "internalType": "uint256"
        }
      ],
      "anonymous": false
    },
    {
      "type": "event",
      "name": "PaymentExecuted",
      "inputs": [
        {
          "name": "token",
          "type": "address",
          "indexed": true,
          "internalType": "address"
        },
        {
          "name": "to",
          "type": "address",
          "indexed": true,
          "internalType": "address"
        },
        {
          "name": "amount",
          "type": "uint256",
          "indexed": false,
          "internalType": "uint256"
        },
        {
          "name": "nonce",
          "type": "uint256",
          "indexed": true,
          "internalType": "uint256"
        }
      ],
      "anonymous": false
    },
    {
      "type": "error",
      "name": "EthTransferFailed",
      "inputs": []
    },
    {
      "type": "error",
      "name": "Expired",
      "inputs": []
    },
    {
      "type": "error",
      "name": "InvalidShortString",
      "inputs": []
    },
    {
      "type": "error",
      "name": "InvalidSignature",
      "inputs": []
    },
    {
      "type": "error",
      "name": "NonceAlreadyUsed",
      "inputs": []
    },
    {
      "type": "error",
      "name": "OnlyOwner",
      "inputs": []
    },
    {
      "type": "error",
      "name": "SafeERC20FailedOperation",
      "inputs": [
        {
          "name": "token",
          "type": "address",
          "internalType": "address"
        }
      ]
    },
    {
      "type": "error",
      "name": "StringTooLong",
      "inputs": [
        {
          "name": "str",
          "type": "string",
          "internalType": "string"
        }
      ]
    },
    {
      "type": "error",
      "name": "ZeroAddress",
      "inputs": []
    }
  ],
  "bytecode": {
    "object": "0x6101606040523461012a5760405161001860408261012e565b6008815260208101906744656c656761746560c01b82526040519161003e60408461012e565b600383526020830191620312e360ec1b835261005981610165565b61012052610066846102fb565b61014052519020918260e05251902080610100524660a0526040519060208201927f8b73c3c69bb8fe3d512ecc4cf759cc79239f7b179b0ffacaa9a75d522b39400f8452604083015260608201524660808201523060a082015260a081526100cf60c08261012e565b5190206080523060c05260405161131c9081610434823960805181610d72015260a05181610e29015260c05181610d3c015260e05181610dc101526101005181610de7015261012051816108ec015261014051816109160152f35b5f80fd5b601f909101601f19168101906001600160401b0382119082101761015157604052565b634e487b7160e01b5f52604160045260245ffd5b908151602081105f146101df575090601f81511161019f576020815191015160208210610190571790565b5f198260200360031b1b161790565b604460209160405192839163305a27a960e01b83528160048401528051918291826024860152018484015e5f828201840152601f01601f19168101030190fd5b6001600160401b038111610151575f54600181811c911680156102f1575b60208210146102dd57601f81116102ab575b50602092601f821160011461024c57928192935f92610241575b50508160011b915f199060031b1c1916175f5560ff90565b015190505f80610229565b601f198216935f8052805f20915f5b868110610293575083600195961061027b575b505050811b015f5560ff90565b01515f1960f88460031b161c191690555f808061026e565b9192602060018192868501518155019401920161025b565b5f8052601f60205f20910160051c810190601f830160051c015b8181106102d2575061020f565b5f81556001016102c5565b634e487b7160e01b5f52602260045260245ffd5b90607f16906101fd565b908151602081105f14610326575090601f81511161019f576020815191015160208210610190571790565b6001600160401b03811161015157600154600181811c91168015610429575b60208210146102dd57601f81116103f6575b50602092601f821160011461039557928192935f9261038a575b50508160011b915f199060031b1c19161760015560ff90565b015190505f80610371565b601f1982169360015f52805f20915f5b8681106103de57508360019596106103c6575b505050811b0160015560ff90565b01515f1960f88460031b161c191690555f80806103b8565b919260206001819286850151815501940192016103a5565b60015f52601f60205f20910160051c810190601f830160051c015b81811061041e5750610357565b5f8155600101610411565b90607f169061034556fe6080604052600436101561001a575b3615610018575f80fd5b005b5f3560e01c806301ffc9a7146100a957806305b6eb9f146100a4578063150b7a021461009f5780631626ba7e1461009a5780633b8218601461009557806384b0196e14610090578063b70e36f01461008b578063bc197c81146100865763f23a6e610361000e57610838565b61079c565b6106da565b610634565b6104fb565b610366565b61030d565b610130565b346100ff5760203660031901126100ff5760043563ffffffff60e01b81168091036100ff57602090630271189760e51b81149081156100ee575b506040519015158152f35b6301ffc9a760e01b149050826100e3565b5f80fd5b9181601f840112156100ff578235916001600160401b0383116100ff57602083818601950101116100ff57565b346100ff57366003190160a081126100ff576080136100ff576084356001600160401b0381116100ff57610168903690600401610103565b90610171610891565b916001600160a01b03831691821561023c575f8080809361019160443590565b9761019b89610964565b6101ef8960043598899460a08c60643594604051917fa24447fab62723450095d3ad42f06d3f815a023f2e0b97c41a5f768c52177ff4835289602084015260408301526060820152846080820152206109b6565b5af16101f96108b8565b501561022d576040519081527f5b813f4e4c636cc5ac783aa96cc52a4c3497353f799dbcd59041d4dd543b34e790602090a3005b630db2c7f160e31b5f5260045ffd5b63d92e233d60e01b5f5260045ffd5b6001600160a01b038116036100ff57565b634e487b7160e01b5f52604160045260245ffd5b601f909101601f19168101906001600160401b0382119082101761029357604052565b61025c565b6001600160401b03811161029357601f01601f191660200190565b81601f820112156100ff578035906102ca82610298565b926102d86040519485610270565b828452602083830101116100ff57815f926020809301838601378301015290565b6001600160e01b0319909116815260200190565b346100ff5760803660031901126100ff5761032960043561024b565b61033460243561024b565b6064356001600160401b0381116100ff576103539036906004016102b3565b50604051630a85bd0160e11b8152602090f35b346100ff5760403660031901126100ff576004356024356001600160401b0381116100ff57610399903690600401610103565b9190826103a68183610b3a565b90969492916103b36108e7565b5092969450908d6103c787959e958a610c12565b149c8d6104f1575b8d610478575b50505050505050505050508215610466575b50501561040d57506104099050630b135d3f60e11b5b604051918291826102f9565b0390f35b7f773977397739773977397739773977397739773977397739773977397739773914908161045d575b501561044c57610409637739000160e01b6103fd565b6104096001600160e01b03196103fd565b9050155f610436565b6104719250836109f6565b825f6103e7565b6104e09b9d50916104db98979593918360206104d59997955191012096602081519101206040519760208901526040880152606087015260018060a01b0316608086015260a085015260a084526104d060c085610270565b610c2f565b90610c12565b610ab4565b915f808080808080808080806103d5565b8515159d506103cf565b346100ff57366003190160c081126100ff5760a0136100ff5760a4356001600160401b0381116100ff57610533903690600401610103565b9061053c6108a0565b6001600160a01b03811691821561023c5761060b60c06105fb7ff9526c97e462282f793fa26260fdbb98fb81047df50b1249179bfffae687094a9386956105f561058560643590565b809a61059082610964565b6105986108ac565b9460243597889660843594604051917f935bf9a4261e15f8449634fd7c0e31227afce52a2f0829d3b5a103c6c9ba7c67835260018060a01b03169d8e6020840152896040840152606083015260808201528460a0820152206109b6565b86610a38565b6040519081529081906020820190565b0390a4005b805180835260209291819084018484015e5f828201840152601f01601f1916010190565b346100ff575f3660031901126100ff5761068461064f6108e7565b949690929361067660405198899860ff60f81b16895260e060208a015260e0890190610610565b908782036040890152610610565b92606086015260018060a01b0316608085015260a084015282810360c0840152602080835192838152019201905f5b8181106106c1575050500390f35b82518452859450602093840193909201916001016106b3565b346100ff5760203660031901126100ff57600435303303610724576106fe81610964565b7f4d9dbebf1d909894d9c26fe228c27cec643b2cb490124e5b658f4edd203c20c15f80a2005b635fc483c560e01b5f5260045ffd5b9080601f830112156100ff5781356001600160401b0381116102935760208160051b01926107646040519485610270565b81845260208085019260051b8201019283116100ff57602001905b82821061078c5750505090565b813581526020918201910161077f565b346100ff5760a03660031901126100ff576107b860043561024b565b6107c360243561024b565b6044356001600160401b0381116100ff576107e2903690600401610733565b506064356001600160401b0381116100ff57610802903690600401610733565b506084356001600160401b0381116100ff576108229036906004016102b3565b506040518061040963bc197c8160e01b826102f9565b346100ff5760a03660031901126100ff5761085460043561024b565b61085f60243561024b565b6084356001600160401b0381116100ff5761087e9036906004016102b3565b5060405163f23a6e6160e01b8152602090f35b60243561089d8161024b565b90565b60443561089d8161024b565b60043561089d8161024b565b3d156108e2573d906108c982610298565b916108d76040519384610270565b82523d5f602084013e565b606090565b6109107f0000000000000000000000000000000000000000000000000000000000000000610e4f565b9061093a7f0000000000000000000000000000000000000000000000000000000000000000610f32565b90604051610949602082610270565b5f808252366020830137600f60f81b939291469130915f9190565b805f525f5160206112f05f395f51905f5260205260ff60405f2054166109a8575f525f5160206112f05f395f51905f5260205260405f20600160ff19825416179055565b623f613760e71b5f5260045ffd5b9242116109e7576104db6109d1936109cc610d39565b610c12565b156109d857565b638baa579f60e01b5f5260045ffd5b630407b05b60e31b5f5260045ffd5b906104db61089d9392610a07610d39565b907f983e65e5148e570cd828ead231ee759a8d7958721a768f93bc4483ba005c32de5f5260205260405f2090610c12565b916040519163a9059cbb60e01b5f5260018060a01b031660045260245260205f60448180865af160015f5114811615610a95575b60409190915215610a7a5750565b635274afe760e01b5f526001600160a01b031660045260245ffd5b6001811516610aab573d15833b15151616610a6c565b503d5f823e3d90fd5b90610abf9291610fea565b509060018060a01b031630149081610ad5575090565b90506004811015610ae4571590565b634e487b7160e01b5f52602160045260245ffd5b9092919283116100ff579190565b909392938483116100ff5784116100ff578101920390565b359060208110610b2c575090565b5f199060200360031b1b1690565b9160428210610c0257600119820192610b5583858184610b06565b6001600160f01b031991359182169160028210610be2575b505060f01c806042018410610bd057830391610bcc60011984019560211985019687956041190196610bc6610bb883610bbe610bb8610bad8d878d610af8565b9e909e9d878d610b06565b90610b1e565b99848a610b06565b95610b06565b9091565b505f9350839250829182915081908190565b6001600160f01b031960029290920360031b82901b161690505f80610b6d565b5f92508291508190819081908190565b6042916040519161190160f01b8352600283015260228201522090565b90610c3c91939293611071565b90929180610c4e575050505050505f90565b605c610d0d91602e84610d339760405196848895602087019a6d0a8f2e0cac888c2e8c2a6d2cedc560931b8c52868801378501917f20636f6e74656e74732c737472696e67206e616d652c737472696e6720766572858401527f73696f6e2c75696e7432353620636861696e49642c6164647265737320766572604e8401527b696679696e67436f6e74726163742c627974657333322073616c742960201b606e840152608a83013701015f838201520301601f198101835282610270565b51902092610d256040519384926020840196876111ad565b03601f198101835282610270565b51902090565b307f00000000000000000000000000000000000000000000000000000000000000006001600160a01b03161480610e26575b15610d94577f000000000000000000000000000000000000000000000000000000000000000090565b60405160208101907f8b73c3c69bb8fe3d512ecc4cf759cc79239f7b179b0ffacaa9a75d522b39400f82527f000000000000000000000000000000000000000000000000000000000000000060408201527f000000000000000000000000000000000000000000000000000000000000000060608201524660808201523060a082015260a08152610d3360c082610270565b507f00000000000000000000000000000000000000000000000000000000000000004614610d6b565b60ff8114610e605761089d906111cd565b506040515f5f548060011c91600182168015610f28575b602084108114610f145783855284926020840191908115610efb5750600114610ea8575b5061089d92500382610270565b5f80805291507f290decd9548b62a8d60345a988386fc84ba6bc95484008f6362f93160ef3e5635b848310610ee4575061089d9350015f610e9b565b805482840152859350602090920191600101610ed0565b60ff191682525061089d93151560051b0190505f610e9b565b634e487b7160e01b5f52602260045260245ffd5b92607f1692610e77565b60ff8114610f435761089d906111cd565b506040515f6001548060011c91600182168015610fe0575b602084108114610f145783855284926020840191908115610efb5750600114610f8b575061089d92500382610270565b60015f90815291507fb10e2d527612073b26eecdfd717e6a320cf44b4afac2b0732d9fcbe2b7fa0cf65b848310610fc9575061089d9350015f610e9b565b805482840152859350602090920191600101610fb5565b92607f1692610f5b565b90604183036110145761100d9250602081013591604082359201355f1a9061120b565b9192909190565b50505f9160029190565b634e487b7160e01b5f52601160045260245ffd5b5f1981019190821161104057565b61101e565b90821015611051570190565b634e487b7160e01b5f52603260045260245ffd5b8015611040575f190190565b9080611084575b50505f905f905f905f90565b602960f81b6001600160f81b03196110b66110a86110a185611032565b8587611045565b356001600160f81b03191690565b1603611128575f5b8181106110d1575b5050505b5f80611078565b6110df6110a8828486611045565b6001600160f81b03198116600560fb1b036111135750801561110e57611106908284610af8565b939093929190565b6110c6565b61111c9061128e565b61110e576001016110be565b9081805b611139575b5050506110ca565b6111536110a861114c8396949596611032565b8686611045565b6001600160f81b03198116602960f81b0361118857508061117985611181938187610b06565b959094610af8565b9293929091565b611195909493929461128e565b6111a8576111a290611065565b8061112c565b611131565b90926020926040948352838301528051928391018483015e01015f815290565b60ff811690601f82116111fc57604051916111e9604084610270565b6020808452838101919036833783525290565b632cd44ac360e21b5f5260045ffd5b91906fa2a8918ca85bafe22016d0b997e4df60600160ff1b038411611283579160209360809260ff5f9560405194855216868401526040830152606082015282805260015afa15611278575f516001600160a01b0381161561126e57905f905f90565b505f906001905f90565b6040513d5f823e3d90fd5b5050505f9160039190565b6001600160f81b03191680159081156112e1575b81156112d3575b81156112c5575b81156112ba575090565b602960f81b14919050565b600560fb1b811491506112b0565b600b60fa1b811491506112a9565b600160fd1b811491506112a256fed0f2263d152f9b30dd64b4d5776066eeab75bd391d74f37c4437a35b6b29ce00a164736f6c634300081d000a",
    "linkReferences": {}
  },
  "methodIdentifiers": {
    "eip712Domain()": "84b0196e",
    "invalidateNonce(uint256)": "b70e36f0",
    "isValidSignature(bytes32,bytes)": "1626ba7e",
    "onERC1155BatchReceived(address,address,uint256[],uint256[],bytes)": "bc197c81",
    "onERC1155Received(address,address,uint256,uint256,bytes)": "f23a6e61",
    "onERC721Received(address,address,uint256,bytes)": "150b7a02",
    "supportsInterface(bytes4)": "01ffc9a7",
    "transfer((address,uint256,address,uint256,uint256),bytes)": "3b821860",
    "transferEth((uint256,address,uint256,uint256),bytes)": "05b6eb9f"
  },
  "id": 56
}