{
  "abi": [
    {
      "type": "constructor",
      "inputs": [],
      "stateMutability": "nonpayable"
    },
    {
      "type": "receive",
      "stateMutability": "payable"
    },
    {
      "type": "function",
      "name": "eip712Domain",
      "inputs": [],
      "outputs": [
        {
          "name": "fields",
          "type": "bytes1",
          "internalType": "bytes1"
        },
        {
          "name": "name",
          "type": "string",
          "internalType": "string"
        },
        {
          "name": "version",
          "type": "string",
          "internalType": "string"
        },
        {
          "name": "chainId",
          "type": "uint256",
          "internalType": "uint256"
        },
        {
          "name": "verifyingContract",
          "type": "address",
          "internalType": "address"
        },
        {
          "name": "salt",
          "type": "bytes32",
          "internalType": "bytes32"
        },
        {
          "name": "extensions",
          "type": "uint256[]",
          "internalType": "uint256[]"
        }
      ],
      "stateMutability": "view"
    },
    {
      "type": "function",
      "name": "invalidateNonce",
      "inputs": [
        {
          "name": "nonce",
          "type": "uint256",
          "internalType": "uint256"
        }
      ],
      "outputs": [],
      "stateMutability": "nonpayable"
    },
    {
      "type": "function",
      "name": "isValidSignature",
      "inputs": [
        {
          "name": "hash",
          "type": "bytes32",
          "internalType": "bytes32"
        },
        {
          "name": "signature",
          "type": "bytes",
          "internalType": "bytes"
        }
      ],
      "outputs": [
        {
          "name": "result",
          "type": "bytes4",
          "internalType": "bytes4"
        }
      ],
      "stateMutability": "view"
    },
    {
      "type": "function",
      "name": "onERC1155BatchReceived",
      "inputs": [
        {
          "name": "",
          "type": "address",
          "internalType": "address"
        },
        {
          "name": "",
          "type": "address",
          "internalType": "address"
        },
        {
          "name": "",
          "type": "uint256[]",
          "internalType": "uint256[]"
        },
        {
          "name": "",
          "type": "uint256[]",
          "internalType": "uint256[]"
        },
        {
          "name": "",
          "type": "bytes",
          "internalType": "bytes"
        }
      ],
      "outputs": [
        {
          "name": "",
          "type": "bytes4",
          "internalType": "bytes4"
        }
      ],
      "stateMutability": "nonpayable"
    },
    {
      "type": "function",
      "name": "onERC1155Received",
      "inputs": [
        {
          "name": "",
          "type": "address",
          "internalType": "address"
        },
        {
          "name": "",
          "type": "address",
          "internalType": "address"
        },
        {
          "name": "",
          "type": "uint256",
          "internalType": "uint256"
        },
        {
          "name": "",
          "type": "uint256",
          "internalType": "uint256"
        },
        {
          "name": "",
          "type": "bytes",
          "internalType": "bytes"
        }
      ],
      "outputs": [
        {
          "name": "",
          "type": "bytes4",
          "internalType": "bytes4"
        }
      ],
      "stateMutability": "nonpayable"
    },
    {
      "type": "function",
      "name": "onERC721Received",
      "inputs": [
        {
          "name": "",
          "type": "address",
          "internalType": "address"
        },
        {
          "name": "",
          "type": "address",
          "internalType": "address"
        },
        {
          "name": "",
          "type": "uint256",
          "internalType": "uint256"
        },
        {
          "name": "",
          "type": "bytes",
          "internalType": "bytes"
        }
      ],
      "outputs": [
        {
          "name": "",
          "type": "bytes4",
          "internalType": "bytes4"
        }
      ],
      "stateMutability": "nonpayable"
    },
    {
      "type": "function",
      "name": "supportsInterface",
      "inputs": [
        {
          "name": "interfaceId",
          "type": "bytes4",
          "internalType": "bytes4"
        }
      ],
      "outputs": [
        {
          "name": "",
          "type": "bool",
          "internalType": "bool"
        }
      ],
      "stateMutability": "view"
    },
    {
      "type": "function",
      "name": "transfer",
      "inputs": [
        {
          "name": "intent",
          "type": "tuple",
          "internalType": "struct Delegate.PaymentIntent",
          "components": [
            {
              "name": "token",
              "type": "address",
              "internalType": "address"
            },
            {
              "name": "amount",
              "type": "uint256",
              "internalType": "uint256"
            },
            {
              "name": "to",
              "type": "address",
              "internalType": "address"
            },
            {
              "name": "nonce",
              "type": "uint256",
              "internalType": "uint256"
            },
            {
              "name": "deadline",
              "type": "uint256",
              "internalType": "uint256"
            }
          ]
        },
        {
          "name": "signature",
          "type": "bytes",
          "internalType": "bytes"
        }
      ],
      "outputs": [],
      "stateMutability": "nonpayable"
    },
    {
      "type": "function",
      "name": "transferEth",
      "inputs": [
        {
          "name": "intent",
          "type": "tuple",
          "internalType": "struct Delegate.EthPaymentIntent",
          "components": [
            {
              "name": "amount",
              "type": "uint256",
              "internalType": "uint256"
            },
            {
              "name": "to",
              "type": "address",
              "internalType": "address"
            },
            {
              "name": "nonce",
              "type": "uint256",
              "internalType": "uint256"
            },
            {
              "name": "deadline",
              "type": "uint256",
              "internalType": "uint256"
            }
          ]
        },
        {
          "name": "signature",
          "type": "bytes",
          "internalType": "bytes"
        }
      ],
      "outputs": [],
      "stateMutability": "nonpayable"
    },
    {
      "type": "event",
      "name": "EIP712DomainChanged",
      "inputs": [],
      "anonymous": false
    },
    {
      "type": "error",
      "name": "InvalidShortString",
      "inputs": []
    },
    {
      "type": "error",
      "name": "SafeERC20FailedOperation",
      "inputs": [
        {
          "name": "token",
          "type": "address",
          "internalType": "address"
        }
      ]
    },
    {
      "type": "error",
      "name": "StringTooLong",
      "inputs": [
        {
          "name": "str",
          "type": "string",
          "internalType": "string"
        }
      ]
    }
  ],
  "bytecode": {
    "object": "0x6101606040523461012a5760405161001860408261012e565b6008815260208101906744656c656761746560c01b82526040519161003e60408461012e565b600383526020830191620312e360ec1b835261005981610165565b61012052610066846102fb565b61014052519020918260e05251902080610100524660a0526040519060208201927f8b73c3c69bb8fe3d512ecc4cf759cc79239f7b179b0ffacaa9a75d522b39400f8452604083015260608201524660808201523060a082015260a081526100cf60c08261012e565b5190206080523060c0526040516113379081610434823960805181610d7a015260a05181610e31015260c05181610d44015260e05181610dc901526101005181610def015261012051816108c4015261014051816108ee0152f35b5f80fd5b601f909101601f19168101906001600160401b0382119082101761015157604052565b634e487b7160e01b5f52604160045260245ffd5b908151602081105f146101df575090601f81511161019f576020815191015160208210610190571790565b5f198260200360031b1b161790565b604460209160405192839163305a27a960e01b83528160048401528051918291826024860152018484015e5f828201840152601f01601f19168101030190fd5b6001600160401b038111610151575f54600181811c911680156102f1575b60208210146102dd57601f81116102ab575b50602092601f821160011461024c57928192935f92610241575b50508160011b915f199060031b1c1916175f5560ff90565b015190505f80610229565b601f198216935f8052805f20915f5b868110610293575083600195961061027b575b505050811b015f5560ff90565b01515f1960f88460031b161c191690555f808061026e565b9192602060018192868501518155019401920161025b565b5f8052601f60205f20910160051c810190601f830160051c015b8181106102d2575061020f565b5f81556001016102c5565b634e487b7160e01b5f52602260045260245ffd5b90607f16906101fd565b908151602081105f14610326575090601f81511161019f576020815191015160208210610190571790565b6001600160401b03811161015157600154600181811c91168015610429575b60208210146102dd57601f81116103f6575b50602092601f821160011461039557928192935f9261038a575b50508160011b915f199060031b1c19161760015560ff90565b015190505f80610371565b601f1982169360015f52805f20915f5b8681106103de57508360019596106103c6575b505050811b0160015560ff90565b01515f1960f88460031b161c191690555f80806103b8565b919260206001819286850151815501940192016103a5565b60015f52601f60205f20910160051c810190601f830160051c015b81811061041e5750610357565b5f8155600101610411565b90607f169061034556fe6080604052600436101561001a575b3615610018575f80fd5b005b5f3560e01c806301ffc9a7146100a957806305b6eb9f146100a4578063150b7a021461009f5780631626ba7e1461009a5780633b8218601461009557806384b0196e14610090578063b70e36f01461008b578063bc197c81146100865763f23a6e610361000e57610823565b610787565b6106c7565b610621565b6104c3565b61031e565b6102c4565b610131565b346100ff5760203660031901126100ff5760043563ffffffff60e01b81168091036100ff57602090630271189760e51b81149081156100ee575b506040519015158152f35b6301ffc9a760e01b149050826100e3565b5f80fd5b9181601f840112156100ff5782359167ffffffffffffffff83116100ff57602083818601950101116100ff57565b346100ff57366003190160a081126100ff576080136100ff5760843567ffffffffffffffff81116100ff575f808080610171610018953690600401610103565b906101e36044356101818161093c565b600435936024359361019285610216565b60a060643593604051907fa24447fab62723450095d3ad42f06d3f815a023f2e0b97c41a5f768c52177ff48252886020830152600180841b03881660408301526060820152846080820152206109e0565b5af13d15610211573d6101f581610262565b90610203604051928361023b565b81525f60203d92013e61087d565b61087d565b6001600160a01b038116036100ff57565b634e487b7160e01b5f52604160045260245ffd5b90601f8019910116810190811067ffffffffffffffff82111761025d57604052565b610227565b67ffffffffffffffff811161025d57601f01601f191660200190565b81601f820112156100ff5780359061029582610262565b926102a3604051948561023b565b828452602083830101116100ff57815f926020809301838601378301015290565b346100ff5760803660031901126100ff576102e0600435610216565b6102eb602435610216565b60643567ffffffffffffffff81116100ff5761030b90369060040161027e565b50604051630a85bd0160e11b8152602090f35b346100ff5760403660031901126100ff5760043560243567ffffffffffffffff81116100ff57610352903690600401610103565b91908261035f8183610b41565b909694929161036c6108bf565b5092969450908d61038087959e958a610c19565b149c8d6104b9575b8d610440575b5050505050505050505050821561042e575b5050156103d557506103d19050630b135d3f60e11b5b6040516001600160e01b031990911681529081906020820190565b0390f35b7f7739773977397739773977397739773977397739773977397739773977397739149081610425575b5015610414576103d1637739000160e01b6103b6565b6103d16001600160e01b03196103b6565b9050155f6103fe565b610439925083610a76565b825f6103a0565b6104a89b9d50916104a3989795939183602061049d9997955191012096602081519101206040519760208901526040880152606087015260018060a01b0316608086015260a085015260a0845261049860c08561023b565b610c36565b90610c19565b610abb565b915f8080808080808080808061038e565b8515159d50610388565b346100ff57366003190160c081126100ff5760a0136100ff5760a43567ffffffffffffffff81116100ff576104fc903690600401610103565b606435906105098261093c565b61058b60043561051881610216565b602435926044359561052987610216565b60c060843593604051907f935bf9a4261e15f8449634fd7c0e31227afce52a2f0829d3b5a103c6c9ba7c67825260018060a01b03169889602083015287604083015260018060a01b03169788606083015260808201528460a0820152206109e0565b6040519163a9059cbb60e01b5f5260045260245260205f60448180865af160015f51148116156105de575b604091909152156105c357005b635274afe760e01b5f526001600160a01b031660045260245ffd5b60018115166105f4573d15833b151516166105b6565b503d5f823e3d90fd5b805180835260209291819084018484015e5f828201840152601f01601f1916010190565b346100ff575f3660031901126100ff5761067161063c6108bf565b949690929361066360405198899860ff60f81b16895260e060208a015260e08901906105fd565b9087820360408901526105fd565b92606086015260018060a01b0316608085015260a084015282810360c0840152602080835192838152019201905f5b8181106106ae575050500390f35b82518452859450602093840193909201916001016106a0565b346100ff5760203660031901126100ff576004353033036106eb576100189061093c565b60405162461bcd60e51b815260206004820152600a60248201526927b7363c9037bbb732b960b11b6044820152606490fd5b9080601f830112156100ff57813567ffffffffffffffff811161025d5760208160051b019261074f604051948561023b565b81845260208085019260051b8201019283116100ff57602001905b8282106107775750505090565b813581526020918201910161076a565b346100ff5760a03660031901126100ff576107a3600435610216565b6107ae602435610216565b60443567ffffffffffffffff81116100ff576107ce90369060040161071d565b5060643567ffffffffffffffff81116100ff576107ef90369060040161071d565b5060843567ffffffffffffffff81116100ff5761081090369060040161027e565b5060405163bc197c8160e01b8152602090f35b346100ff5760a03660031901126100ff5761083f600435610216565b61084a602435610216565b60843567ffffffffffffffff81116100ff5761086a90369060040161027e565b5060405163f23a6e6160e01b8152602090f35b1561088457565b60405162461bcd60e51b8152602060048201526013602482015272115512081d1c985b9cd9995c8819985a5b1959606a1b6044820152606490fd5b6108e87f0000000000000000000000000000000000000000000000000000000000000000610e57565b906109127f0000000000000000000000000000000000000000000000000000000000000000610f3a565b9060405161092160208261023b565b5f808252366020830137600f60f81b939291469130915f9190565b805f527fd0f2263d152f9b30dd64b4d5776066eeab75bd391d74f37c4437a35b6b29ce0060205260ff60405f2054166109a6575f527fd0f2263d152f9b30dd64b4d5776066eeab75bd391d74f37c4437a35b6b29ce0060205260405f20600160ff19825416179055565b60405162461bcd60e51b8152602060048201526012602482015271139bdb98d948185b1c9958591e481d5cd95960721b6044820152606490fd5b924211610a47576104a36109fb936109f6610d41565b610c19565b15610a0257565b60405162461bcd60e51b815260206004820152601860248201527f496e76616c696420496e74656e74205369676e617475726500000000000000006044820152606490fd5b60405162461bcd60e51b8152602060048201526007602482015266115e1c1a5c995960ca1b6044820152606490fd5b906104a3610ab89392610a87610d41565b907f983e65e5148e570cd828ead231ee759a8d7958721a768f93bc4483ba005c32de5f5260205260405f2090610c19565b90565b90610ac69291610ff2565b509060018060a01b031630149081610adc575090565b90506004811015610aeb571590565b634e487b7160e01b5f52602160045260245ffd5b9092919283116100ff579190565b909392938483116100ff5784116100ff578101920390565b359060208110610b33575090565b5f199060200360031b1b1690565b9160428210610c0957600119820192610b5c83858184610b0d565b6001600160f01b031991359182169160028210610be9575b505060f01c806042018410610bd757830391610bd360011984019560211985019687956041190196610bcd610bbf83610bc5610bbf610bb48d878d610aff565b9e909e9d878d610b0d565b90610b25565b99848a610b0d565b95610b0d565b9091565b505f9350839250829182915081908190565b6001600160f01b031960029290920360031b82901b161690505f80610b74565b5f92508291508190819081908190565b6042916040519161190160f01b8352600283015260228201522090565b90610c4391939293611079565b90929180610c55575050505050505f90565b605c610d1591602e84610d3b9760405196848895602087019a6d0a8f2e0cac888c2e8c2a6d2cedc560931b8c52868801378501917f20636f6e74656e74732c737472696e67206e616d652c737472696e6720766572858401527f73696f6e2c75696e7432353620636861696e49642c6164647265737320766572604e8401527f696679696e67436f6e74726163742c627974657333322073616c742900000000606e840152608a83013701015f838201520301601f19810183528261023b565b51902092610d2d6040519384926020840196876111b5565b03601f19810183528261023b565b51902090565b307f00000000000000000000000000000000000000000000000000000000000000006001600160a01b03161480610e2e575b15610d9c577f000000000000000000000000000000000000000000000000000000000000000090565b60405160208101907f8b73c3c69bb8fe3d512ecc4cf759cc79239f7b179b0ffacaa9a75d522b39400f82527f000000000000000000000000000000000000000000000000000000000000000060408201527f000000000000000000000000000000000000000000000000000000000000000060608201524660808201523060a082015260a08152610d3b60c08261023b565b507f00000000000000000000000000000000000000000000000000000000000000004614610d73565b60ff8114610e6857610ab8906111d5565b506040515f5f548060011c91600182168015610f30575b602084108114610f1c5783855284926020840191908115610f035750600114610eb0575b50610ab89250038261023b565b5f80805291507f290decd9548b62a8d60345a988386fc84ba6bc95484008f6362f93160ef3e5635b848310610eec5750610ab89350015f610ea3565b805482840152859350602090920191600101610ed8565b60ff1916825250610ab893151560051b0190505f610ea3565b634e487b7160e01b5f52602260045260245ffd5b92607f1692610e7f565b60ff8114610f4b57610ab8906111d5565b506040515f6001548060011c91600182168015610fe8575b602084108114610f1c5783855284926020840191908115610f035750600114610f935750610ab89250038261023b565b60015f90815291507fb10e2d527612073b26eecdfd717e6a320cf44b4afac2b0732d9fcbe2b7fa0cf65b848310610fd15750610ab89350015f610ea3565b805482840152859350602090920191600101610fbd565b92607f1692610f63565b906041830361101c576110159250602081013591604082359201355f1a90611213565b9192909190565b50505f9160029190565b634e487b7160e01b5f52601160045260245ffd5b5f1981019190821161104857565b611026565b90821015611059570190565b634e487b7160e01b5f52603260045260245ffd5b8015611048575f190190565b908061108c575b50505f905f905f905f90565b602960f81b6001600160f81b03196110be6110b06110a98561103a565b858761104d565b356001600160f81b03191690565b1603611130575f5b8181106110d9575b5050505b5f80611080565b6110e76110b082848661104d565b6001600160f81b03198116600560fb1b0361111b575080156111165761110e908284610aff565b939093929190565b6110ce565b611124906112a0565b611116576001016110c6565b9081805b611141575b5050506110d2565b61115b6110b0611154839694959661103a565b868661104d565b6001600160f81b03198116602960f81b0361119057508061118185611189938187610b0d565b959094610aff565b9293929091565b61119d90949392946112a0565b6111b0576111aa9061106d565b80611134565b611139565b90926020926040948352838301528051928391018483015e01015f815290565b60ff811690601f821161120457604051916111f160408461023b565b6020808452838101919036833783525290565b632cd44ac360e21b5f5260045ffd5b91907f7fffffffffffffffffffffffffffffff5d576e7357a4501ddfe92f46681b20a08411611295579160209360809260ff5f9560405194855216868401526040830152606082015282805260015afa1561128a575f516001600160a01b0381161561128057905f905f90565b505f906001905f90565b6040513d5f823e3d90fd5b5050505f9160039190565b6001600160f81b03191680159081156112f3575b81156112e5575b81156112d7575b81156112cc575090565b602960f81b14919050565b600560fb1b811491506112c2565b600b60fa1b811491506112bb565b600160fd1b811491506112b456fea26469706673582212209f9907eff565ef3ff90ef60c8424c707af1788252dbdcf89c45d74247568dd5964736f6c634300081d0033",
    "linkReferences": {}
  },
  "methodIdentifiers": {
    "eip712Domain()": "84b0196e",
    "invalidateNonce(uint256)": "b70e36f0",
    "isValidSignature(bytes32,bytes)": "1626ba7e",
    "onERC1155BatchReceived(address,address,uint256[],uint256[],bytes)": "bc197c81",
    "onERC1155Received(address,address,uint256,uint256,bytes)": "f23a6e61",
    "onERC721Received(address,address,uint256,bytes)": "150b7a02",
    "supportsInterface(bytes4)": "01ffc9a7",
    "transfer((address,uint256,address,uint256,uint256),bytes)": "3b821860",
    "transferEth((uint256,address,uint256,uint256),bytes)": "05b6eb9f"
  },
  "id": 56
}